{
  "contractName": "ReAcid",
  "abi": [
    {
      "constant": true,
      "inputs": [
        {
          "name": "",
          "type": "uint256"
        }
      ],
      "name": "records",
      "outputs": [
        {
          "name": "id",
          "type": "uint256"
        },
        {
          "name": "name",
          "type": "string"
        },
        {
          "name": "phoneNumber",
          "type": "string"
        },
        {
          "name": "typeOfAcid",
          "type": "string"
        }
      ],
      "payable": false,
      "stateMutability": "view",
      "type": "function",
      "signature": "0x34461067"
    },
    {
      "constant": true,
      "inputs": [],
      "name": "recordCount",
      "outputs": [
        {
          "name": "",
          "type": "uint256"
        }
      ],
      "payable": false,
      "stateMutability": "view",
      "type": "function",
      "signature": "0x900407bc"
    },
    {
      "inputs": [],
      "payable": false,
      "stateMutability": "nonpayable",
      "type": "constructor",
      "signature": "constructor"
    },
    {
      "anonymous": false,
      "inputs": [
        {
          "indexed": false,
          "name": "id",
          "type": "uint256"
        },
        {
          "indexed": false,
          "name": "name",
          "type": "string"
        },
        {
          "indexed": false,
          "name": "phoneNumber",
          "type": "string"
        },
        {
          "indexed": false,
          "name": "typeOfAcid",
          "type": "string"
        }
      ],
      "name": "RecordAdded",
      "type": "event",
      "signature": "0x32461dca2b0453944e6182689e5a824e738185a02d42ed2a9bc0bc6f6a877833"
    },
    {
      "constant": false,
      "inputs": [
        {
          "name": "_name",
          "type": "string"
        },
        {
          "name": "_phoneNumber",
          "type": "string"
        },
        {
          "name": "_typeOfAcid",
          "type": "string"
        }
      ],
      "name": "createRecord",
      "outputs": [],
      "payable": false,
      "stateMutability": "nonpayable",
      "type": "function",
      "signature": "0xfacff5d2"
    },
    {
      "constant": false,
      "inputs": [],
      "name": "timeCall",
      "outputs": [
        {
          "name": "",
          "type": "uint256"
        }
      ],
      "payable": false,
      "stateMutability": "nonpayable",
      "type": "function",
      "signature": "0x0c25b335"
    }
  ],
  "bytecode": "0x60806040526000805534801561001457600080fd5b506100ce6040805190810160405280600481526020017f59617368000000000000000000000000000000000000000000000000000000008152506040805190810160405280600a81526020017f38393230393538323738000000000000000000000000000000000000000000008152506040805190810160405280600581526020017f4832534f340000000000000000000000000000000000000000000000000000008152506100d3640100000000026401000000009004565b610374565b600080546001908101808355604080516080810182528281526020808201898152828401899052606083018890529386528481529190942084518155915180519293610127939085019291909101906102d9565b50604082015180516101439160028401916020909101906102d9565b506060820151805161015f9160038401916020909101906102d9565b509050507f32461dca2b0453944e6182689e5a824e738185a02d42ed2a9bc0bc6f6a87783360005484848460405180858152602001806020018060200180602001848103845287818151815260200191508051906020019080838360005b838110156101d55781810151838201526020016101bd565b50505050905090810190601f1680156102025780820380516001836020036101000a031916815260200191505b50848103835286518152865160209182019188019080838360005b8381101561023557818101518382015260200161021d565b50505050905090810190601f1680156102625780820380516001836020036101000a031916815260200191505b50848103825285518152855160209182019187019080838360005b8381101561029557818101518382015260200161027d565b50505050905090810190601f1680156102c25780820380516001836020036101000a031916815260200191505b5097505050505050505060405180910390a1505050565b828054600181600116156101000203166002900490600052602060002090601f016020900481019282601f1061031a57805160ff1916838001178555610347565b82800160010185558215610347579182015b8281111561034757825182559160200191906001019061032c565b50610353929150610357565b5090565b61037191905b80821115610353576000815560010161035d565b90565b61087780620003846000396000f3fe6080604052600436106100615763ffffffff7c01000000000000000000000000000000000000000000000000000000006000350416630c25b3358114610066578063344610671461008d578063900407bc14610202578063facff5d214610217575b600080fd5b34801561007257600080fd5b5061007b6103da565b60408051918252519081900360200190f35b34801561009957600080fd5b506100b7600480360360208110156100b057600080fd5b50356103df565b60405180858152602001806020018060200180602001848103845287818151815260200191508051906020019080838360005b838110156101025781810151838201526020016100ea565b50505050905090810190601f16801561012f5780820380516001836020036101000a031916815260200191505b50848103835286518152865160209182019188019080838360005b8381101561016257818101518382015260200161014a565b50505050905090810190601f16801561018f5780820380516001836020036101000a031916815260200191505b50848103825285518152855160209182019187019080838360005b838110156101c25781810151838201526020016101aa565b50505050905090810190601f1680156101ef5780820380516001836020036101000a031916815260200191505b5097505050505050505060405180910390f35b34801561020e57600080fd5b5061007b6105a7565b34801561022357600080fd5b506103d86004803603606081101561023a57600080fd5b81019060208101813564010000000081111561025557600080fd5b82018360208201111561026757600080fd5b8035906020019184600183028401116401000000008311171561028957600080fd5b91908080601f01602080910402602001604051908101604052809392919081815260200183838082843760009201919091525092959493602081019350359150506401000000008111156102dc57600080fd5b8201836020820111156102ee57600080fd5b8035906020019184600183028401116401000000008311171561031057600080fd5b91908080601f016020809104026020016040519081016040528093929190818152602001838380828437600092019190915250929594936020810193503591505064010000000081111561036357600080fd5b82018360208201111561037557600080fd5b8035906020019184600183028401116401000000008311171561039757600080fd5b91908080601f0160208091040260200160405190810160405280939291908181526020018383808284376000920191909152509295506105ad945050505050565b005b425b90565b600160208181526000928352604092839020805481840180548651600296821615610100026000190190911695909504601f8101859004850286018501909652858552909491939290919083018282801561047b5780601f106104505761010080835404028352916020019161047b565b820191906000526020600020905b81548152906001019060200180831161045e57829003601f168201915b50505060028085018054604080516020601f600019610100600187161502019094169590950492830185900485028101850190915281815295969594509092509083018282801561050d5780601f106104e25761010080835404028352916020019161050d565b820191906000526020600020905b8154815290600101906020018083116104f057829003601f168201915b5050505060038301805460408051602060026001851615610100026000190190941693909304601f810184900484028201840190925281815294959493509083018282801561059d5780601f106105725761010080835404028352916020019161059d565b820191906000526020600020905b81548152906001019060200180831161058057829003601f168201915b5050505050905084565b60005481565b600080546001908101808355604080516080810182528281526020808201898152828401899052606083018890529386528481529190942084518155915180519293610601939085019291909101906107b3565b506040820151805161061d9160028401916020909101906107b3565b50606082015180516106399160038401916020909101906107b3565b509050507f32461dca2b0453944e6182689e5a824e738185a02d42ed2a9bc0bc6f6a87783360005484848460405180858152602001806020018060200180602001848103845287818151815260200191508051906020019080838360005b838110156106af578181015183820152602001610697565b50505050905090810190601f1680156106dc5780820380516001836020036101000a031916815260200191505b50848103835286518152865160209182019188019080838360005b8381101561070f5781810151838201526020016106f7565b50505050905090810190601f16801561073c5780820380516001836020036101000a031916815260200191505b50848103825285518152855160209182019187019080838360005b8381101561076f578181015183820152602001610757565b50505050905090810190601f16801561079c5780820380516001836020036101000a031916815260200191505b5097505050505050505060405180910390a1505050565b828054600181600116156101000203166002900490600052602060002090601f016020900481019282601f106107f457805160ff1916838001178555610821565b82800160010185558215610821579182015b82811115610821578251825591602001919060010190610806565b5061082d929150610831565b5090565b6103dc91905b8082111561082d576000815560010161083756fea165627a7a723058200b6e9d18d5b34a64ce603e14ba4464daa4e6679a9374dadb7f6fb55a74fc38be0029",
  "source": "pragma solidity ^0.5.0;\r\n\r\ncontract ReAcid {\r\n    uint public recordCount = 0;\r\n\r\n    struct Record {\r\n\r\n        uint id;\r\n        string name;\r\n        string phoneNumber;\r\n        string typeOfAcid;\r\n    }\r\n\r\n    event RecordAdded (\r\n\r\n        uint id,\r\n        string name,\r\n        string phoneNumber,\r\n        string typeOfAcid\r\n    );\r\n\r\n    mapping(uint => Record) public records;\r\n\r\n    function createRecord(string memory _name, string memory _phoneNumber, string memory _typeOfAcid) public {\r\n        recordCount++;\r\n        records[recordCount] = Record(recordCount, _name, _phoneNumber, _typeOfAcid);\r\n        emit RecordAdded(recordCount, _name, _phoneNumber, _typeOfAcid);\r\n    }\r\n    \r\n    function timeCall() public returns (uint256) {\r\n        return now;\r\n    }\r\n\r\n    constructor() public {\r\n\r\n        createRecord(\"Yash\", \"8920958278\", \"H2SO4\");\r\n    }\r\n}",
  "sourcePath": "C:/Users/yash/Documents/ReAcid2/contracts/ReAcid.sol",
  "compiler": {
    "name": "solc",
    "version": "0.5.0+commit.1d4f565a.Emscripten.clang"
  },
  "schemaVersion": "3.0.1",
  "updatedAt": "2020-01-25T22:03:04.746Z",
  "devdoc": {
    "methods": {}
  },
  "userdoc": {
    "methods": {}
  }
}